{
  "contractName": "BUN",
  "abi": [
    {
      "inputs": [],
      "payable": false,
      "stateMutability": "nonpayable",
      "type": "constructor"
    },
    {
      "anonymous": false,
      "inputs": [
        {
          "indexed": false,
          "internalType": "uint256",
          "name": "id",
          "type": "uint256"
        },
        {
          "indexed": false,
          "internalType": "address",
          "name": "drone",
          "type": "address"
        },
        {
          "indexed": false,
          "internalType": "address",
          "name": "sensor",
          "type": "address"
        },
        {
          "indexed": false,
          "internalType": "bytes",
          "name": "encryptedData",
          "type": "bytes"
        }
      ],
      "name": "provideDataLog",
      "type": "event"
    },
    {
      "anonymous": false,
      "inputs": [
        {
          "indexed": false,
          "internalType": "address",
          "name": "wallet",
          "type": "address"
        },
        {
          "indexed": false,
          "internalType": "bytes",
          "name": "publicKey",
          "type": "bytes"
        },
        {
          "indexed": false,
          "internalType": "enum BUN.ROLE",
          "name": "role",
          "type": "uint8"
        }
      ],
      "name": "registerNewUserLog",
      "type": "event"
    },
    {
      "anonymous": false,
      "inputs": [
        {
          "indexed": false,
          "internalType": "uint256",
          "name": "id",
          "type": "uint256"
        },
        {
          "indexed": false,
          "internalType": "address",
          "name": "drone",
          "type": "address"
        },
        {
          "indexed": false,
          "internalType": "address",
          "name": "sensor",
          "type": "address"
        }
      ],
      "name": "requestDataLog",
      "type": "event"
    },
    {
      "constant": true,
      "inputs": [
        {
          "internalType": "uint256",
          "name": "",
          "type": "uint256"
        }
      ],
      "name": "request",
      "outputs": [
        {
          "internalType": "address",
          "name": "sensor",
          "type": "address"
        },
        {
          "internalType": "address",
          "name": "drone",
          "type": "address"
        },
        {
          "internalType": "bytes",
          "name": "encryptedData",
          "type": "bytes"
        }
      ],
      "payable": false,
      "stateMutability": "view",
      "type": "function"
    },
    {
      "constant": true,
      "inputs": [
        {
          "internalType": "uint256",
          "name": "",
          "type": "uint256"
        }
      ],
      "name": "requestIds",
      "outputs": [
        {
          "internalType": "uint256",
          "name": "",
          "type": "uint256"
        }
      ],
      "payable": false,
      "stateMutability": "view",
      "type": "function"
    },
    {
      "constant": true,
      "inputs": [
        {
          "internalType": "address",
          "name": "",
          "type": "address"
        }
      ],
      "name": "user",
      "outputs": [
        {
          "internalType": "address",
          "name": "wallet",
          "type": "address"
        },
        {
          "internalType": "bytes",
          "name": "publicKey",
          "type": "bytes"
        },
        {
          "internalType": "enum BUN.ROLE",
          "name": "role",
          "type": "uint8"
        }
      ],
      "payable": false,
      "stateMutability": "view",
      "type": "function"
    },
    {
      "constant": true,
      "inputs": [
        {
          "internalType": "uint256",
          "name": "",
          "type": "uint256"
        }
      ],
      "name": "userIds",
      "outputs": [
        {
          "internalType": "address",
          "name": "",
          "type": "address"
        }
      ],
      "payable": false,
      "stateMutability": "view",
      "type": "function"
    },
    {
      "constant": false,
      "inputs": [
        {
          "internalType": "address",
          "name": "_wallet",
          "type": "address"
        },
        {
          "internalType": "bytes",
          "name": "_publicKey",
          "type": "bytes"
        },
        {
          "internalType": "enum BUN.ROLE",
          "name": "_role",
          "type": "uint8"
        }
      ],
      "name": "registerNewUser",
      "outputs": [],
      "payable": false,
      "stateMutability": "nonpayable",
      "type": "function"
    },
    {
      "constant": false,
      "inputs": [
        {
          "internalType": "address",
          "name": "_sensor",
          "type": "address"
        }
      ],
      "name": "requestData",
      "outputs": [],
      "payable": false,
      "stateMutability": "nonpayable",
      "type": "function"
    },
    {
      "constant": false,
      "inputs": [
        {
          "internalType": "uint256",
          "name": "_id",
          "type": "uint256"
        },
        {
          "internalType": "bytes",
          "name": "_encryptedData",
          "type": "bytes"
        }
      ],
      "name": "provideData",
      "outputs": [],
      "payable": false,
      "stateMutability": "nonpayable",
      "type": "function"
    },
    {
      "constant": true,
      "inputs": [
        {
          "internalType": "address",
          "name": "_wallet",
          "type": "address"
        }
      ],
      "name": "getUserPublicKey",
      "outputs": [
        {
          "internalType": "bytes",
          "name": "",
          "type": "bytes"
        }
      ],
      "payable": false,
      "stateMutability": "view",
      "type": "function"
    },
    {
      "constant": true,
      "inputs": [],
      "name": "getusers",
      "outputs": [
        {
          "internalType": "address[]",
          "name": "",
          "type": "address[]"
        },
        {
          "internalType": "bytes[]",
          "name": "",
          "type": "bytes[]"
        },
        {
          "internalType": "enum BUN.ROLE[]",
          "name": "",
          "type": "uint8[]"
        }
      ],
      "payable": false,
      "stateMutability": "view",
      "type": "function"
    },
    {
      "constant": true,
      "inputs": [],
      "name": "getRequests",
      "outputs": [
        {
          "internalType": "uint256[]",
          "name": "",
          "type": "uint256[]"
        },
        {
          "internalType": "address[]",
          "name": "",
          "type": "address[]"
        },
        {
          "internalType": "address[]",
          "name": "",
          "type": "address[]"
        },
        {
          "internalType": "bytes[]",
          "name": "",
          "type": "bytes[]"
        }
      ],
      "payable": false,
      "stateMutability": "view",
      "type": "function"
    }
  ],
  "bytecode": "0x608060405234801561001057600080fd5b5060016000803373ffffffffffffffffffffffffffffffffffffffff1673ffffffffffffffffffffffffffffffffffffffff16815260200190815260200160002060020160006101000a81548160ff0219169083600381111561006f57fe5b0217905550336000803373ffffffffffffffffffffffffffffffffffffffff1673ffffffffffffffffffffffffffffffffffffffff16815260200190815260200160002060000160006101000a81548173ffffffffffffffffffffffffffffffffffffffff021916908373ffffffffffffffffffffffffffffffffffffffff16021790555060023390806001815401808255809150509060018203906000526020600020016000909192909190916101000a81548173ffffffffffffffffffffffffffffffffffffffff021916908373ffffffffffffffffffffffffffffffffffffffff16021790555050611f37806101696000396000f3fe608060405234801561001057600080fd5b506004361061009e5760003560e01c80638796ba8c116100665780638796ba8c146101715780638813ce12146101a15780639dd4cc5d146101c2578063d2ff1e36146101de578063d845a4b3146101fa5761009e565b806311231fe0146100a357806314edccc2146100d35780634635fd68146100f357806346fd4d881461012357806381e7e20e1461013f575b600080fd5b6100bd60048036036100b89190810190611418565b61022c565b6040516100ca9190611b50565b60405180910390f35b6100db61030f565b6040516100ea93929190611aa3565b60405180910390f35b61010d600480360361010891908101906114ad565b6106b2565b60405161011a91906119cc565b60405180910390f35b61013d600480360361013891908101906114d6565b6106ee565b005b61015960048036036101549190810190611418565b6108a3565b60405161016893929190611a65565b60405180910390f35b61018b600480360361018691908101906114ad565b610992565b6040516101989190611bf2565b60405180910390f35b6101a96109b3565b6040516101b99493929190611aef565b60405180910390f35b6101dc60048036036101d79190810190611418565b610cf7565b005b6101f860048036036101f39190810190611441565b610ecb565b005b610214600480360361020f91908101906114ad565b6111e8565b604051610223939291906119e7565b60405180910390f35b60606000808373ffffffffffffffffffffffffffffffffffffffff1673ffffffffffffffffffffffffffffffffffffffff1681526020019081526020016000206001018054600181600116156101000203166002900480601f0160208091040260200160405190810160405280929190818152602001828054600181600116156101000203166002900480156103035780601f106102d857610100808354040283529160200191610303565b820191906000526020600020905b8154815290600101906020018083116102e657829003601f168201915b50505050509050919050565b6060806060806002805490506040519080825280602002602001820160405280156103495781602001602082028038833980820191505090505b509050606060028054905060405190808252806020026020018201604052801561038757816020015b60608152602001906001900390816103725790505b50905060606002805490506040519080825280602002602001820160405280156103c05781602001602082028038833980820191505090505b50905060008090505b6002805490508110156106a057600080600283815481106103e657fe5b9060005260206000200160009054906101000a900473ffffffffffffffffffffffffffffffffffffffff1673ffffffffffffffffffffffffffffffffffffffff1673ffffffffffffffffffffffffffffffffffffffff16815260200190815260200160002060000160009054906101000a900473ffffffffffffffffffffffffffffffffffffffff1684828151811061047b57fe5b602002602001019073ffffffffffffffffffffffffffffffffffffffff16908173ffffffffffffffffffffffffffffffffffffffff1681525050600080600283815481106104c557fe5b9060005260206000200160009054906101000a900473ffffffffffffffffffffffffffffffffffffffff1673ffffffffffffffffffffffffffffffffffffffff1673ffffffffffffffffffffffffffffffffffffffff1681526020019081526020016000206001018054600181600116156101000203166002900480601f0160208091040260200160405190810160405280929190818152602001828054600181600116156101000203166002900480156105c15780601f10610596576101008083540402835291602001916105c1565b820191906000526020600020905b8154815290600101906020018083116105a457829003601f168201915b50505050508382815181106105d257fe5b6020026020010181905250600080600283815481106105ed57fe5b9060005260206000200160009054906101000a900473ffffffffffffffffffffffffffffffffffffffff1673ffffffffffffffffffffffffffffffffffffffff1673ffffffffffffffffffffffffffffffffffffffff16815260200190815260200160002060020160009054906101000a900460ff1682828151811061066f57fe5b6020026020010190600381111561068257fe5b9081600381111561068f57fe5b8152505080806001019150506103c9565b50828282955095509550505050909192565b600281815481106106bf57fe5b906000526020600020016000915054906101000a900473ffffffffffffffffffffffffffffffffffffffff1681565b600260038111156106fb57fe5b6000803373ffffffffffffffffffffffffffffffffffffffff1673ffffffffffffffffffffffffffffffffffffffff16815260200190815260200160002060020160009054906101000a900460ff16600381111561075557fe5b14610795576040517f08c379a000000000000000000000000000000000000000000000000000000000815260040161078c90611b72565b60405180910390fd5b3373ffffffffffffffffffffffffffffffffffffffff166001600085815260200190815260200160002060000160009054906101000a900473ffffffffffffffffffffffffffffffffffffffff1673ffffffffffffffffffffffffffffffffffffffff161461080357600080fd5b81816001600086815260200190815260200160002060020191906108289291906112ea565b507ff99fd52ab14017813a2ff4556804bd61ae67c739af507064b118cef50182774e836001600086815260200190815260200160002060010160009054906101000a900473ffffffffffffffffffffffffffffffffffffffff16338585604051610896959493929190611c44565b60405180910390a1505050565b60006020528060005260406000206000915090508060000160009054906101000a900473ffffffffffffffffffffffffffffffffffffffff1690806001018054600181600116156101000203166002900480601f0160208091040260200160405190810160405280929190818152602001828054600181600116156101000203166002900480156109755780601f1061094a57610100808354040283529160200191610975565b820191906000526020600020905b81548152906001019060200180831161095857829003601f168201915b5050505050908060020160009054906101000a900460ff16905083565b6003818154811061099f57fe5b906000526020600020016000915090505481565b60608060608060606003805490506040519080825280602002602001820160405280156109ef5781602001602082028038833980820191505090505b5090506060600380549050604051908082528060200260200182016040528015610a285781602001602082028038833980820191505090505b5090506060600380549050604051908082528060200260200182016040528015610a615781602001602082028038833980820191505090505b5090506060600380549050604051908082528060200260200182016040528015610a9f57816020015b6060815260200190600190039081610a8a5790505b50905060008090505b600380549050811015610ce05780858281518110610ac257fe5b6020026020010181815250506001600060038381548110610adf57fe5b9060005260206000200154815260200190815260200160002060000160009054906101000a900473ffffffffffffffffffffffffffffffffffffffff16848281518110610b2857fe5b602002602001019073ffffffffffffffffffffffffffffffffffffffff16908173ffffffffffffffffffffffffffffffffffffffff16815250506001600060038381548110610b7357fe5b9060005260206000200154815260200190815260200160002060010160009054906101000a900473ffffffffffffffffffffffffffffffffffffffff16838281518110610bbc57fe5b602002602001019073ffffffffffffffffffffffffffffffffffffffff16908173ffffffffffffffffffffffffffffffffffffffff16815250506001600060038381548110610c0757fe5b906000526020600020015481526020019081526020016000206002018054600181600116156101000203166002900480601f016020809104026020016040519081016040528092919081815260200182805460018160011615610100020316600290048015610cb75780601f10610c8c57610100808354040283529160200191610cb7565b820191906000526020600020905b815481529060010190602001808311610c9a57829003601f168201915b5050505050828281518110610cc857fe5b60200260200101819052508080600101915050610aa8565b508383838397509750975097505050505090919293565b600380811115610d0357fe5b6000803373ffffffffffffffffffffffffffffffffffffffff1673ffffffffffffffffffffffffffffffffffffffff16815260200190815260200160002060020160009054906101000a900460ff166003811115610d5d57fe5b14610d9d576040517f08c379a0000000000000000000000000000000000000000000000000000000008152600401610d9490611bd2565b60405180910390fd5b6004600081548092919060010191905055503360016000600454815260200190815260200160002060010160006101000a81548173ffffffffffffffffffffffffffffffffffffffff021916908373ffffffffffffffffffffffffffffffffffffffff1602179055508060016000600454815260200190815260200160002060000160006101000a81548173ffffffffffffffffffffffffffffffffffffffff021916908373ffffffffffffffffffffffffffffffffffffffff160217905550600360045490806001815401808255809150509060018203906000526020600020016000909192909190915055507fcc90fe0b555ad07760900a1c533fb234ccb2d6ce86e37fb6443af234a7d9a4c86004543383604051610ec093929190611c0d565b60405180910390a150565b60016003811115610ed857fe5b6000803373ffffffffffffffffffffffffffffffffffffffff1673ffffffffffffffffffffffffffffffffffffffff16815260200190815260200160002060020160009054906101000a900460ff166003811115610f3257fe5b14610f72576040517f08c379a0000000000000000000000000000000000000000000000000000000008152600401610f6990611bb2565b60405180910390fd5b600380811115610f7e57fe5b816003811115610f8a57fe5b1480610fac575060026003811115610f9e57fe5b816003811115610faa57fe5b145b80610fcd575060016003811115610fbf57fe5b816003811115610fcb57fe5b145b61100c576040517f08c379a000000000000000000000000000000000000000000000000000000000815260040161100390611b92565b60405180910390fd5b836000808673ffffffffffffffffffffffffffffffffffffffff1673ffffffffffffffffffffffffffffffffffffffff16815260200190815260200160002060000160006101000a81548173ffffffffffffffffffffffffffffffffffffffff021916908373ffffffffffffffffffffffffffffffffffffffff16021790555082826000808773ffffffffffffffffffffffffffffffffffffffff1673ffffffffffffffffffffffffffffffffffffffff16815260200190815260200160002060010191906110dc9291906112ea565b50806000808673ffffffffffffffffffffffffffffffffffffffff1673ffffffffffffffffffffffffffffffffffffffff16815260200190815260200160002060020160006101000a81548160ff0219169083600381111561113a57fe5b021790555060028490806001815401808255809150509060018203906000526020600020016000909192909190916101000a81548173ffffffffffffffffffffffffffffffffffffffff021916908373ffffffffffffffffffffffffffffffffffffffff160217905550507fe8ace00ec0657a5d8e99e4fa3f893cc1986b6d18659d3a44637cc31b6a7b6748848484846040516111da9493929190611a25565b60405180910390a150505050565b60016020528060005260406000206000915090508060000160009054906101000a900473ffffffffffffffffffffffffffffffffffffffff16908060010160009054906101000a900473ffffffffffffffffffffffffffffffffffffffff1690806002018054600181600116156101000203166002900480601f0160208091040260200160405190810160405280929190818152602001828054600181600116156101000203166002900480156112e05780601f106112b5576101008083540402835291602001916112e0565b820191906000526020600020905b8154815290600101906020018083116112c357829003601f168201915b5050505050905083565b828054600181600116156101000203166002900490600052602060002090601f016020900481019282601f1061132b57803560ff1916838001178555611359565b82800160010185558215611359579182015b8281111561135857823582559160200191906001019061133d565b5b509050611366919061136a565b5090565b61138c91905b80821115611388576000816000905550600101611370565b5090565b90565b60008135905061139e81611eb6565b92915050565b60008083601f8401126113b657600080fd5b8235905067ffffffffffffffff8111156113cf57600080fd5b6020830191508360018202830111156113e757600080fd5b9250929050565b6000813590506113fd81611ecd565b92915050565b60008135905061141281611edd565b92915050565b60006020828403121561142a57600080fd5b60006114388482850161138f565b91505092915050565b6000806000806060858703121561145757600080fd5b60006114658782880161138f565b945050602085013567ffffffffffffffff81111561148257600080fd5b61148e878288016113a4565b935093505060406114a1878288016113ee565b91505092959194509250565b6000602082840312156114bf57600080fd5b60006114cd84828501611403565b91505092915050565b6000806000604084860312156114eb57600080fd5b60006114f986828701611403565b935050602084013567ffffffffffffffff81111561151657600080fd5b611522868287016113a4565b92509250509250925092565b600061153a8383611599565b60208301905092915050565b600061155283836117ac565b905092915050565b6000611566838361181e565b60208301905092915050565b600061157e83836119ae565b60208301905092915050565b61159381611e0e565b82525050565b6115a281611dbf565b82525050565b6115b181611dbf565b82525050565b60006115c282611cd2565b6115cc8185611d48565b93506115d783611c92565b8060005b838110156116085781516115ef888261152e565b97506115fa83611d14565b9250506001810190506115db565b5085935050505092915050565b600061162082611cdd565b61162a8185611d59565b93508360208202850161163c85611ca2565b8060005b8581101561167857848403895281516116598582611546565b945061166483611d21565b925060208a01995050600181019050611640565b50829750879550505050505092915050565b600061169582611ce8565b61169f8185611d7b565b93506116aa83611cb2565b8060005b838110156116db5781516116c2888261155a565b97506116cd83611d2e565b9250506001810190506116ae565b5085935050505092915050565b60006116f382611cf3565b6116fd8185611d6a565b935061170883611cc2565b8060005b838110156117395781516117208882611572565b975061172b83611d3b565b92505060018101905061170c565b5085935050505092915050565b60006117528385611d9d565b935061175f838584611e56565b61176883611e98565b840190509392505050565b600061177e82611d09565b6117888185611d9d565b9350611798818560208601611e65565b6117a181611e98565b840191505092915050565b60006117b782611cfe565b6117c18185611d8c565b93506117d1818560208601611e65565b6117da81611e98565b840191505092915050565b60006117f082611cfe565b6117fa8185611d9d565b935061180a818560208601611e65565b61181381611e98565b840191505092915050565b61182781611e20565b82525050565b61183681611e20565b82525050565b6000611849602783611dae565b91507f42554e3a204f6e6c792053656e736f722063616e2063616c6c2074686973206660008301527f756e6374696f6e000000000000000000000000000000000000000000000000006020830152604082019050919050565b60006118af601f83611dae565b91507f42554e3a205573657220726f6c65206973206e6f7420737570706f72746564006000830152602082019050919050565b60006118ef602683611dae565b91507f42554e3a204f6e6c792041646d696e2063616e2063616c6c207468697320667560008301527f6e6374696f6e00000000000000000000000000000000000000000000000000006020830152604082019050919050565b6000611955602683611dae565b91507f42554e3a204f6e6c792044726f6e652063616e2063616c6c207468697320667560008301527f6e6374696f6e00000000000000000000000000000000000000000000000000006020830152604082019050919050565b6119b781611e04565b82525050565b6119c681611e04565b82525050565b60006020820190506119e160008301846115a8565b92915050565b60006060820190506119fc60008301866115a8565b611a0960208301856115a8565b8181036040830152611a1b81846117e5565b9050949350505050565b6000606082019050611a3a60008301876115a8565b8181036020830152611a4d818587611746565b9050611a5c604083018461182d565b95945050505050565b6000606082019050611a7a60008301866115a8565b8181036020830152611a8c81856117e5565b9050611a9b604083018461182d565b949350505050565b60006060820190508181036000830152611abd81866115b7565b90508181036020830152611ad18185611615565b90508181036040830152611ae5818461168a565b9050949350505050565b60006080820190508181036000830152611b0981876116e8565b90508181036020830152611b1d81866115b7565b90508181036040830152611b3181856115b7565b90508181036060830152611b458184611615565b905095945050505050565b60006020820190508181036000830152611b6a8184611773565b905092915050565b60006020820190508181036000830152611b8b8161183c565b9050919050565b60006020820190508181036000830152611bab816118a2565b9050919050565b60006020820190508181036000830152611bcb816118e2565b9050919050565b60006020820190508181036000830152611beb81611948565b9050919050565b6000602082019050611c0760008301846119bd565b92915050565b6000606082019050611c2260008301866119bd565b611c2f602083018561158a565b611c3c60408301846115a8565b949350505050565b6000608082019050611c5960008301886119bd565b611c6660208301876115a8565b611c73604083018661158a565b8181036060830152611c86818486611746565b90509695505050505050565b6000819050602082019050919050565b6000819050602082019050919050565b6000819050602082019050919050565b6000819050602082019050919050565b600081519050919050565b600081519050919050565b600081519050919050565b600081519050919050565b600081519050919050565b600081519050919050565b6000602082019050919050565b6000602082019050919050565b6000602082019050919050565b6000602082019050919050565b600082825260208201905092915050565b600082825260208201905092915050565b600082825260208201905092915050565b600082825260208201905092915050565b600082825260208201905092915050565b600082825260208201905092915050565b600082825260208201905092915050565b6000611dca82611de4565b9050919050565b6000819050611ddf82611ea9565b919050565b600073ffffffffffffffffffffffffffffffffffffffff82169050919050565b6000819050919050565b6000611e1982611e32565b9050919050565b6000611e2b82611dd1565b9050919050565b6000611e3d82611e44565b9050919050565b6000611e4f82611de4565b9050919050565b82818337600083830152505050565b60005b83811015611e83578082015181840152602081019050611e68565b83811115611e92576000848401525b50505050565b6000601f19601f8301169050919050565b60048110611eb357fe5b50565b611ebf81611dbf565b8114611eca57600080fd5b50565b60048110611eda57600080fd5b50565b611ee681611e04565b8114611ef157600080fd5b5056fea365627a7a72315820c262e4551d387f8fd38dd9b72515b554586b6a3f1178e453735364a0e83936b76c6578706572696d656e74616cf564736f6c63430005100040",
  "source": "pragma solidity 0.5.16;\npragma experimental ABIEncoderV2;\n\ncontract BUN {\n  // User roles in the system\n  enum ROLE {\n    Null,\n    Admin,\n    Sensor,\n    Drone\n  }\n\n  // data storage for user profile\n  mapping(address => User) public user;\n  mapping(uint256 => Request) public request;\n\n  address[] public userIds;\n  uint256[] public requestIds;\n  uint256 lastrequestId;\n\n  struct User {\n    address wallet;\n    bytes publicKey;\n    ROLE role;\n  }\n\n  struct Request {\n    address sensor;\n    address drone;\n    bytes encryptedData;\n  }\n\n  // A modifier used to restrict functions access to only admin\n  modifier onlyAdmin() {\n    require(\n      user[msg.sender].role == ROLE.Admin,\n      \"BUN: Only Admin can call this function\"\n    );\n    _;\n  }\n\n  // A modifier used to restrict functions access to only Sensor\n  modifier onlySensor() {\n    require(\n      user[msg.sender].role == ROLE.Sensor,\n      \"BUN: Only Sensor can call this function\"\n    );\n    _;\n  }\n\n  // A modifier used to restrict functions access to only Drone\n  modifier onlyDrone() {\n    require(\n      user[msg.sender].role == ROLE.Drone,\n      \"BUN: Only Drone can call this function\"\n    );\n    _;\n  }\n\n  // Event log for registerNewUser function\n  event registerNewUserLog(address wallet, bytes publicKey, ROLE role);\n\n  // Event log for requestData function\n  event requestDataLog(uint256 id, address drone, address sensor);\n\n  // Event log for provideData function\n  event provideDataLog(\n    uint256 id,\n    address drone,\n    address sensor,\n    bytes encryptedData\n  );\n\n  constructor() public {\n    user[msg.sender].role = ROLE.Admin;\n    user[msg.sender].wallet = msg.sender;\n    userIds.push(msg.sender);\n  }\n\n  // Register new user function. This function is only called by Admin\n  function registerNewUser(\n    address _wallet,\n    bytes calldata _publicKey,\n    ROLE _role\n  ) external onlyAdmin {\n    require(\n      _role == ROLE.Drone || _role == ROLE.Sensor || _role == ROLE.Admin,\n      \"BUN: User role is not supported\"\n    );\n    user[_wallet].wallet = _wallet;\n    user[_wallet].publicKey = _publicKey;\n    user[_wallet].role = _role;\n    userIds.push(_wallet);\n\n    emit registerNewUserLog(_wallet, _publicKey, _role);\n  }\n\n  // This function is used by Drone to request data from Sensor.\n  function requestData(address _sensor) external onlyDrone {\n    lastrequestId++;\n    request[lastrequestId].drone = msg.sender;\n    request[lastrequestId].sensor = _sensor;\n    requestIds.push(lastrequestId);\n\n    emit requestDataLog(lastrequestId, msg.sender, _sensor);\n  }\n\n  // This function is used by Sensor to provide data requesed by Drone.\n  function provideData(uint256 _id, bytes calldata _encryptedData)\n    external\n    onlySensor\n  {\n    require(request[_id].sensor == msg.sender);\n    request[_id].encryptedData = _encryptedData;\n\n    emit provideDataLog(_id, request[_id].drone, msg.sender, _encryptedData);\n  }\n\n  // This function returns specific user public key\n  function getUserPublicKey(address _wallet)\n    public\n    view\n    returns (bytes memory)\n  {\n    return user[_wallet].publicKey;\n  }\n\n  // This function returns all system userIds information\n  function getusers()\n    public\n    view\n    returns (\n      address[] memory,\n      bytes[] memory,\n      ROLE[] memory\n    )\n  {\n    address[] memory _wallet = new address[](userIds.length);\n    bytes[] memory _publicKey = new bytes[](userIds.length);\n    ROLE[] memory _role = new ROLE[](userIds.length);\n\n    for (uint256 i = 0; i < userIds.length; i++) {\n      _wallet[i] = user[userIds[i]].wallet;\n      _publicKey[i] = user[userIds[i]].publicKey;\n      _role[i] = user[userIds[i]].role;\n    }\n\n    return (_wallet, _publicKey, _role);\n  }\n\n  // This function returns all Requests information\n  function getRequests()\n    public\n    view\n    returns (\n      uint256[] memory,\n      address[] memory,\n      address[] memory,\n      bytes[] memory\n    )\n  {\n    uint256[] memory _id = new uint256[](requestIds.length);\n    address[] memory _sensor = new address[](requestIds.length);\n    address[] memory _drone = new address[](requestIds.length);\n    bytes[] memory _encryptedData = new bytes[](requestIds.length);\n\n    for (uint256 i = 0; i < requestIds.length; i++) {\n      _id[i] = i;\n      _sensor[i] = request[requestIds[i]].sensor;\n      _drone[i] = request[requestIds[i]].drone;\n      _encryptedData[i] = request[requestIds[i]].encryptedData;\n    }\n\n    return (_id, _sensor, _drone, _encryptedData);\n  }\n}\n",
  "sourcePath": "/Users/fbalwy/Documents/GitHub/blockchain-for-uav-networks/contracts/BUN.sol",
  "compiler": {
    "name": "solc",
    "version": "0.5.16+commit.9c3226ce.Emscripten.clang"
  },
  "schemaVersion": "3.4.4",
  "updatedAt": "2022-01-31T14:36:41.360Z",
  "devdoc": {
    "methods": {}
  },
  "userdoc": {
    "methods": {}
  }
}